:100000000C943A000C9457000C9457000C94570031
:100010000C9457000C9457000C9457000C94570004
:100020000C9457000C9457000C9457000C945700F4
:100030000C9457000C9457000C9457000C945700E4
:100040000C9408020C9457000C9457000C94570021
:100050000C9457000C9457000C9457000C945700C4
:100060000C9457000C9457006364696E6F7073753D
:1000700078585B0011241FBECFEFD8E0DEBFCDBFA4
:1000800011E0A0E0B1E0ECE7F4E102C005900D92D0
:10009000AC37B107D9F725E0ACE7B1E001C01D925C
:1000A000A33FB207E1F70E9452020C943C0A0C9461
:1000B00000002F923F924F925F926F927F928F92A9
:1000C0009F92AF92BF92CF92DF92EF92FF920F93E7
:1000D0001F93CF93DF93CDB7DEB72D970FB6F8946C
:1000E000DEBF0FBECDBFAEE38A2EA3E09A2EBCE7E3
:1000F000EB2EB1E0FB2E1CE0A12E15E0B12E512C11
:10010000412C1D86312C212C8E010F5F1F4F680161
:100110009E012A5F3F4F3F832E8330E020E0A20103
:1001200043505B4F5B874A87F501E20FF31F9081D5
:10013000903209F43FC0A901440F551F8F36B9F51D
:10014000480D591DEFEFFFEFDA01ED93FC932F5FA0
:100150003F4F2F30310541F7FEE18F0E911C0EE12C
:10016000E00EF11C1D851F5F1D872FE0420E511C04
:100170003FE0A30EB11C1F3081F6C1012D960FB6D2
:10018000F894DEBF0FBECDBFDF91CF911F910F91CD
:10019000FF90EF90DF90CF90BF90AF909F908F90A7
:1001A0007F906F905F904F903F902F9008954E0DED
:1001B0005F1DC8CFEA85FB85E20FF31F6FEF7FEF6E
:1001C0004FEF5FEF6115710519F44115510539F0D5
:1001D000DF01A40FB51F9C91891709F453C04F5F2D
:1001E0005F4F4230510571F76F5F7F4F3F9662302E
:1001F000710531F7A901440F551F8F3631F4480DB1
:10020000591DDA011D921C92A2CF4E0D5F1DFA01FD
:10021000118210829CCF9FEF1C85111103C099237E
:1002200009F46EC045E0E0E0F1E0D60101900D92E6
:100230004A95E1F76C844D85640ED986C886792E7F
:10024000720ED60141E050E0EEE0E615A0F1E715B0
:1002500090F10FE0162D1003F0011124E45FFA4F26
:10026000E70DF11D77FCFA95E081E03289F4EFE5C6
:100270001196EC9311974F5F5F4F1C85610E11969D
:10028000790EE2CF0FEF0C879FEF70E060E0C4CFF4
:100290008E1305C0FFE61196FC931197ECCFF60183
:1002A000E40FF51F40814F3631F403E200833197AC
:1002B000EC15FD05B9F750E040E0E885F985A1911E
:1002C000F987E8870AE0049FF001059FF00D1124EB
:1002D000AF3551F0AF3671F1EAE0DA01EA9FA001E3
:1002E000EB9F500D112403C0AF014F5F5F4F0E8194
:1002F0001F81A885B9850A171B07F9F6640F751FBA
:100300009F5F923009F088CF0C850F5F0C87023019
:1003100009F081CFA901440F551F8F3679F4480D9C
:10032000591DDA016D937C93261637060CF00FCF1A
:100330001B010DCFAF014B5F5F4FCECF4E0D5F1D49
:10034000FA0171836083F0CFAF92BF92CF92DF92B8
:10035000EF92FF920F931F93CF93DF930CE015E082
:10036000D0E0C0E095E0C92E91E0D92E29E0E22E40
:1003700021E0F22E58018FE0A80EB11CF801819106
:100380008F01282F082E000C330B3F938F93DF92A1
:10039000CF920E9435040F900F900F900F90A016EF
:1003A000B10661F7DF93CF93FF92EF920E9435047D
:1003B0008EE091E00E944B0421960F900F900F90D9
:1003C0000F90CF30D105B1F6D0E0C0E08AE0E82E42
:1003D000F12C0BE411E0CE01B7010E940D049F93B4
:1003E0008F931F930F930E94350421960F900F90C7
:1003F0000F900F90CF30D10571F7DF91CF911F9102
:100400000F91FF90EF90DF90CF90BF90AF90089545
:100410001F920F920FB60F9211242F933F938F9339
:100420009F93AF93BF938091080590910905A09188
:100430000A05B0910B053091070523E0230F2D37F6
:1004400058F50196A11DB11D20930705809308055D
:1004500090930905A0930A05B0930B0580910305BD
:1004600090910405A0910505B09106050196A11D86
:10047000B11D8093030590930405A0930505B093E7
:100480000605BF91AF919F918F913F912F910F9052
:100490000FBE0F901F90189526E8230F0296A11DFE
:1004A000B11DD2CFCF93DF93CDB7DEB72D970FB667
:1004B000F894DEBF0FBECDBF789484B5826084BD52
:1004C00084B5816084BD85B5826085BD85B5816058
:1004D00085BD80916E00816080936E0010928100D6
:1004E0008091810082608093810080918100816091
:1004F0008093810080918000816080938000809152
:10050000B10084608093B1008091B00081608093DD
:10051000B00080917A00846080937A0080917A00A4
:10052000826080937A0080917A00816080937A0063
:1005300080917A00806880937A001092C1007E01D9
:1005400023E0E20EF11C80E191E00E944B048CE07C
:1005500095E040E230E020E0FC01E20FF31F408331
:100560002F5F3F4F2F303105B9F70F96E5E08D3EF5
:100570009E0781F70E94A4011FE60FE088E7682E1E
:10058000809102058111C8C01F921F9385E391E0FD
:100590009F938F930E9435040F900F900F900F90B0
:1005A00081E090E08C0F9D1F9F938F93FF92EF92BD
:1005B000E9E4F1E0FF93EF930E9476042B813C8104
:1005C00089819A81029FF001039FF00D1124E45F5D
:1005D000FA4FE80FF91F0F900F900F900F900F90A8
:1005E0000F9080818032E1F6108381E080930205D4
:1005F0000E94A4016CE075E0912C30E020E0CB017A
:100600008C5095409D878C87FB01E20FF31FA080E3
:1006100090E2A91609F473C041EF5FEFBB24BA94CE
:10062000722EAC85BD85A20FB31FFD01E45FFA4FAA
:10063000F987E8878B2C880C880CF82DF90DFD8341
:100640008B0C890C8FEF9FEF6A01CA0EDB1EF6013F
:10065000E45FFA4FFF83EE83492C4B18E885F98558
:10066000E41BF50BFB87EA87B11002C08823E1F198
:10067000FD81FF30C8F5582EE82FEE0FEE0FE20F88
:10068000EF3090F56C01C40ED51EEE81FF81E80FAE
:10069000F91F6894332432F82080A21025C03A94C0
:1006A000EC0DFD1D3110F8CFEEE0E41508F496C016
:1006B000E72DE519EF3F09F491C0EF3009F48EC042
:1006C000EA85FB85E81BF90BE081E03209F486C07E
:1006D000FEE0F81508F482C0E52DEE0FEE0FE50DF3
:1006E000E70DEF3008F07AC001968230910509F0ED
:1006F000BBCF415F5F4FB39482E0B8129BCF2F5FB7
:100700003F4F2F30310509F07FCF615F7F4F9394CA
:100710009FE0991272CF34CF1F926F92EFE4F1E015
:10072000FF93EF930E9435048FE60E9459006C01FD
:10073000909301058093000588E70E9459000F906F
:100740000F900F900F908C159D0554F58EE393E05C
:1007500030E020E050E040E0FA01EE0FFF1FE80F2C
:10076000F91F60817181C616D70669F04F5F5F4F30
:100770004F30510589F72F5F3F4F4E962F3031058F
:1007800049F740E020E02003F0011124E45FFA4F34
:10079000E40FF11D47FDFA9560821092020528CF03
:1007A0006CE771E030E020E050E040E0FA01EE0F4D
:1007B000FF1FE60FF71F0190F081E02D8E179F07B6
:1007C00011F34F5F5F4F4F30510581F72F5F3F4F60
:1007D000625E7F4F2F30310539F7D3CFEFE6AE128F
:1007E00014C01F92AF928FE591E09F938F930E9468
:1007F00035040F900F900F900F9080E090E0892BC0
:1008000009F4A1CE0E9400009ECEF8E7AF12B8CE48
:100810001F92AF928FE691E0E8CF97FB072E16F478
:10082000009407D077FD09D00E94210407FC05D071
:100830003EF4909581959F4F0895709561957F4FF7
:100840000895AA1BBB1B51E107C0AA1FBB1FA61717
:10085000B70710F0A61BB70B881F991F5A95A9F769
:1008600080959095BC01CD010895B0E0A0E0EBE348
:10087000F4E00C94150AAE014B5F5F4FFA016191F1
:100880007191AF018091EF059091F0050E948C0469
:10089000E2E00C94310A0F931F93CF93DF93E09122
:1008A000EF05F091F0052381EC0110E000E021FD5F
:1008B00008C00FEF1FEF14C00995892B11F00FEF3F
:1008C0001FEF89916091EF057091F005DB0118969B
:1008D000ED91FC918111F0CF8AE00995892B49F7C0
:1008E000C801DF91CF911F910F910895B0E0A0E072
:1008F000ECE7F4E00C94150AAE014B5F5F4FFA0190
:1009000061917191AF018091ED059091EE050E948A
:10091000F107E2E00C94310AABE0B0E0E2E9F4E088
:100920000C94050A7C013B018A01FC0117821682A6
:10093000838181FFC8C1CE0101965C01F7019381DB
:10094000F30193FD859193FF81913F01882309F481
:1009500053C1853239F493FD859193FF81913F0115
:10096000853229F4B70190E00E945C09E7CF912C11
:10097000212C312CFFE1F31538F08B3211F190F47A
:10098000803209F1833229F137FC3CC020ED280F79
:100990002A3050F536FE20C08AE0989E200D1124A2
:1009A000922E06C08D3291F0803371F7689430F842
:1009B000F30193FD859193FF81913F018111DACF7E
:1009C00021C0689431F8689432F8F2CF689433F813
:1009D000EFCF689434F8ECCFEAE02E9E200D11247E
:1009E000222E689435F8E4CF8E3229F436FC04C107
:1009F000689436F8DDCF8C3619F4689437F8D8CF80
:100A00008836B1F2982F9F7D95549330E0F083366D
:100A1000A1F18337C1F1833509F063C02801F2E009
:100A20004F0E511CF801C080D180692D70E036FC5A
:100A300002C06FEF7FEFC6010E940A094C01689463
:100A400037F882010AC00C5F1F4FFFE3F983882447
:100A50008394912C6501E89437F833FE2DC0522C15
:100A60008114910471F5552009F468CFB70180E233
:100A700090E00E945C095A94F6CFF8018081898346
:100A80000E5F1F4FE4CF2801F2E04F0E511CF8011A
:100A9000C080D180692D70E036FC02C06FEF7FEF1F
:100AA000C6010E9415094C018201D5CFB70180E231
:100AB00090E00E945C092A942814190409F0B0F708
:100AC000CECFF60137FC859137FE81916F01B701DA
:100AD00090E00E945C0951105A94F1E08F1A91083D
:100AE000BFCF843619F0893609F077C0F80137FE98
:100AF0006BC060817181828193810C5F1F4FF32DE8
:100B0000FF763F2E97FF09C090958095709561956F
:100B10007F4F8F4F9F4F689437F82AE030E0A50150
:100B20000E94A409C82ECA188C2C432C36FE0CC077
:100B3000E89440F8C91440F434FE05C032FC03C008
:100B4000F32DFE7E4F2E892C44FE95C0FE01EC0D48
:100B5000F11D8081803309F087C0242D297E422E2B
:100B6000842D8870582E43FC95C040FE8FC09C2C6D
:100B7000821418F42C0C922C981844FE91C0B701E2
:100B800080E390E00E945C0942FE09C088E790E0A3
:100B900041FE02C088E590E0B7010E945C09C914DB
:100BA00008F48AC0CA94D12C9FEFC91AD90ACA0C7A
:100BB000DB1CF60182916F01B70190E00E945C0995
:100BC000AC14BD04B1F74FCF60817181072E000CCA
:100BD000880B990B0E5F1F4F92CFD32CE894D4F85B
:100BE0002AE030E0853739F1232D297FD22E8F3648
:100BF00001F148F48835A9F0F701868197812B9699
:100C0000E2E10C94210A803749F08837A9F7D4FE35
:100C100002C06894D2F820E130E00DC06894D4F8A6
:100C2000F6CF34FE03C0822F8660D82E20E132E05A
:100C300002C028E030E0F801D7FE0FC0608171816A
:100C4000828193810C5F1F4FA5010E94A409C82EC9
:100C5000CA183D2CE89437F867CF6081718190E025
:100C600080E00E5F1F4FF0CF42FC02C0839478CF2C
:100C70008394839475CF842D867809F471CFF6CF51
:100C8000B70180E290E00E945C0983948214C0F373
:100C9000512C73CF522C5818821408F46ECFF8CF11
:100CA000842D867809F47BCF8BE241FE80E247FCFD
:100CB0008DE2B70190E071CFB70180E390E00E9430
:100CC0005C099A946CCF8FEF9FEF99CF20FD09C0FC
:100CD000FC0123FD05C022FF02C0738362835183A0
:100CE0004083089544FD17C046FD1DC0DB01FC0193
:100CF000AA0FBB1FEE1FFF1F1094D1F76A0F7B1FB7
:100D00008E1F9F1F660F771F881F991F620F711D0F
:100D1000811D911D089533E0660F771F881F991F6D
:100D20003150D1F7F3CF34E0F7CF0F931F93CF9328
:100D3000DF938C01C8010E942009EC0197FD08C0D7
:100D40000E94F608892BB1F7B801CE010E948C09E8
:100D5000CE01DF91CF911F910F9108958F929F92B5
:100D6000AF92BF92EF92FF920F931F93CF93DF93B7
:100D70008C01D62F7A01B22E0E9420099C013327C4
:100D80002B32310529F02D323105A9F46894B7F8DA
:100D9000D15061F480E0DF91CF911F910F91FF90CE
:100DA000EF90BF90AF909F908F900895C8010E94E0
:100DB000200997FDEFCFCB2DCD7F2B2D2073F9F49C
:100DC0008033E9F4AA24AA94AD0E89F0C8010E94E8
:100DD000200997FD0CC0282F2F7D283561F4C264AF
:100DE000D25029F0C8010E94200997FF08C0812C29
:100DF000912C54011BC0B6FE2BC0C260DA2D812C91
:100E0000912C540120ED280F283028F1C4FD09C091
:100E10002A3008F1C6FF05C02F7D3FEE320F363075
:100E2000C8F0B8010E948C09C1FFB4CFC7FF08C049
:100E3000B094A09490948094811C911CA11CB11C2E
:100E40002C2FB501A401C7010E94660681E0A3CF43
:100E5000C261D4CF27504C2FC501B4010E94720645
:100E60004B015C01C260D15009F3C8010E94200906
:100E700097FFC8CFD9CFA0E2B0E0E1E4F7E00C944F
:100E80000A0A5C01962E7A01CE0101966C0180E27D
:100E9000F60111928A95E9F7F501B381890130E0F5
:100EA00020E0712C812CA0E041E050E0F801B3FD7E
:100EB0008591B3FF8191982F8F01811107C010E0B8
:100EC00000E0C801A096EDE00C94260A8E3519F4D6
:100ED0002115310541F1A21713064CF48D3549F166
:100EE0008D3229F4811006C0882483941DC0882087
:100EF00009F464C0E92FE695E695E695EC0DFD2D25
:100F0000F11D892F8770BA0101C0660F8A95EAF733
:100F10008081682B6083791651F0971510F49F5FDC
:100F2000E9CF9150E7CFA1E02F5F3F4FBFCF812C9A
:100F3000FBCF882019F08E8180628E83AA2359F01E
:100F4000F6019E012F5D3F4F808180958083319611
:100F5000E217F307C9F788248394C5010E9420098A
:100F600097FD16C0E82FE695E695E695EC0DFD2D6C
:100F7000F11D208130E0AC014770552702C0359546
:100F800027954A95E2F720FD06C0B5010E948C091D
:100F9000882069F094CFE114F10429F0F7018083EF
:100FA000C70101967C019A94812C9110D6CFE1144F
:100FB000F10409F486CFF701108283CFE82FE6957C
:100FC000E695E695EC0DFD2DF11D982F9770BA0171
:100FD00001C0660F9A95EAF79081692B6083782E9D
:100FE000A3CFB0E0A0E0E7EFF7E00C94080A6C01B3
:100FF000EB015A01FC0117821682512CF601E380A5
:10100000FE01E3FC8591E3FE8191182FEF01882317
:10101000E9F090E00E94F608892B21F0C6010E94B9
:101020009506ECCF153241F4FE01E3FC1591E3FE89
:101030001191EF01153269F4C6010E94200997FD54
:101040008EC01817D9F2B6010E948C09852D90E048
:101050008AC000E01A3231F4E3FC1591E3FE1191ED
:10106000EF0101E0F12C20ED210F2A3048F101FFC2
:1010700037C0FF2059F31836B1F11C3609F43DC0D2
:10108000112321F3612F70E088E690E00E94FF08B1
:10109000892BE1F2912C812C00FD06C0F5018080A6
:1010A0009180C50102965C011E3679F5F6014681F4
:1010B000578170E060E0202FC4010E9466069ECF39
:1010C00002606F2D70E090E080E040E20E947206C6
:1010D000F62EFE01E3FC1591E3FE1191EF01C3CF63
:1010E000FF24FA94C8CFFE01E3FC1591E3FE1191B1
:1010F000EF01183609F0C4CF08600460FE01E3FC7C
:101100001591E3FE1191EF01BBCF1336C1F401FD40
:1011100002C0FF24F394C6010E94200997FD1FC05E
:101120008114910429F0F4018083C40101964C01DB
:10113000FA94F110F0CF00FD61CF53945FCF1B35CF
:10114000B9F49E01A4016F2DC6010E943B07EC017A
:10115000892B89F7F6018381807309F477CF8FEFAC
:101160009FEF511073CFCDB7DEB7EFE00C94240A98
:10117000C6010E94950697FDF2CF1F36A9F130F403
:10118000143641F0193639F0006405C01337B9F050
:101190001537D1F70062202FA4016F2DC6010E94E0
:1011A000AE068111C8CFD6CF8114910429F0F40185
:1011B0006082C40101964C01FA94FF2071F0C601CF
:1011C0000E9420093C0197FD08C00E94F608892B67
:1011D00059F3B601C3010E948C098114910409F4EA
:1011E000AACFF4011082A7CF0061D5CF91110C9442
:1011F000020A803219F089508550C8F70895FC0121
:101200000590061621F00020D9F7C0010895319706
:10121000CF010895FC010590615070400110D8F78E
:10122000809590958E0F9F1F0895FC01615070402E
:1012300001900110D8F7809590958E0F9F1F08950B
:10124000CF93DF93EC012B8120FF1AC026FF0CC047
:101250002F7B2B838E819F8101969F838E838A8132
:1012600090E0DF91CF91089522FF18C0E881F981C5
:101270008081082E000C990B009729F420622B83A3
:101280008FEF9FEFEECF3196F983E8832E813F8178
:101290002F5F3F4F3F832E839927E3CFEA85FB855E
:1012A000099597FFF3CF2B81019621F080E2822BE5
:1012B0008B83E6CF80E1FBCF0F931F93CF93DF9318
:1012C000182F092FEB018B8181FD09C01FEF0FEF54
:1012D000812F902FDF91CF911F910F91089582FF61
:1012E00014C02E813F818C819D81281739073CF4E1
:1012F000E881F981CF0101969983888310838E81DB
:101300009F8101969F838E83E3CFE885F985812FA6
:101310000995892BA1F3DACFFB01238120FF11C0AE
:1013200026FD0FC08F3F980771F082832F7D2064C8
:1013300023832681378121503109378326839927DA
:1013400008958FEF9FEF0895FA01AA27283051F1F1
:10135000203181F1E8946F936E7F6E5F7F4F8F4FE6
:101360009F4FAF4FB1E03ED0B4E03CD0670F781F45
:10137000891F9A1FA11D680F791F8A1F911DA11D2A
:101380006A0F711D811D911DA11D20D009F4689463
:101390003F912AE0269F11243019305D3193DEF60B
:1013A000CF010895462F4770405D4193B3E00FD0C1
:1013B000C9F7F6CF462F4F70405D4A3318F0495DAC
:1013C00031FD4052419302D0A9F7EACFB4E0A6958F
:1013D0009795879577956795BA95C9F700976105B1
:1013E000710508959B01AC010A2E06945795479507
:1013F00037952795BA95C9F7620F731F841F951FFC
:10140000A01D08959927882708952F923F924F9203
:101410005F926F927F928F929F92AF92BF92CF9284
:10142000DF92EF92FF920F931F93CF93DF93CDB78D
:10143000DEB7CA1BDB0B0FB6F894DEBF0FBECDBF05
:1014400009942A88398848885F846E847D848C84D6
:101450009B84AA84B984C884DF80EE80FD800C81DF
:101460001B81AA81B981CE0FD11D0FB6F894DEBFC2
:0C1470000FBECDBFED010895F894FFCF32
:10147C0023232323237C2563007C202564007C000C
:10148C0057656C636F6D6520746F20706C6179208B
:10149C006E6F756768747320616E642063726F730E
:1014AC0073657321000A48554D414E202825632948
:1014BC003A207820793A200A002564202564000A15
:1014CC00414920282563293A20782079200A000AEE
:1014DC0048554D414E282563292057696E0A000A4C
:0C14EC004149282563292077696E0A0019
:107E0000112484B714BE81FFF0D085E080938100F7
:107E100082E08093C00088E18093C10086E0809377
:107E2000C20080E18093C4008EE0C9D0259A86E02C
:107E300020E33CEF91E0309385002093840096BBD3
:107E4000B09BFECF1D9AA8958150A9F7CC24DD24C4
:107E500088248394B5E0AB2EA1E19A2EF3E0BF2EE7
:107E6000A2D0813461F49FD0082FAFD0023811F036
:107E7000013811F484E001C083E08DD089C08234E0
:107E800011F484E103C0853419F485E0A6D080C0E4
:107E9000853579F488D0E82EFF2485D0082F10E0AE
:107EA000102F00270E291F29000F111F8ED06801E7
:107EB0006FC0863521F484E090D080E0DECF843638
:107EC00009F040C070D06FD0082F6DD080E0C81688
:107ED00080E7D80618F4F601B7BEE895C0E0D1E017
:107EE00062D089930C17E1F7F0E0CF16F0E7DF06D8
:107EF00018F0F601B7BEE89568D007B600FCFDCFD4
:107F0000A601A0E0B1E02C9130E011968C91119780
:107F100090E0982F8827822B932B1296FA010C0160
:107F200087BEE89511244E5F5F4FF1E0A038BF0790
:107F300051F7F601A7BEE89507B600FCFDCF97BE46
:107F4000E89526C08437B1F42ED02DD0F82E2BD052
:107F50003CD0F601EF2C8F010F5F1F4F84911BD097
:107F6000EA94F801C1F70894C11CD11CFA94CF0C13
:107F7000D11C0EC0853739F428D08EE10CD085E9AC
:107F80000AD08FE07ACF813511F488E018D01DD067
:107F900080E101D065CF982F8091C00085FFFCCF94
:107FA0009093C60008958091C00087FFFCCF809118
:107FB000C00084FD01C0A8958091C6000895E0E648
:107FC000F0E098E1908380830895EDDF803219F02E
:107FD00088E0F5DFFFCF84E1DECF1F93182FE3DFCA
:107FE0001150E9F7F2DF1F91089580E0E8DFEE27F6
:047FF000FF270994CA
:027FFE00040479
:0400000300007E007B
:00000001FF
